:020000040000FA
:10000000700400206D020000710200007302000005
:100010007502000077020000790200000000000075
:100020000000000000000000000000007B02000053
:100030007D020000000000007F0200005906000061
:10004000830200008302000083020000830200009C
:10005000830200008302000083020000830200008C
:10006000830200008302000083020000830200007C
:10007000830200008302000083020000830200006C
:10008000830200008302000083020000830200005C
:10009000830200008302000083020000830200004C
:1000A000830200008302000083020000830200003C
:1000B0008302000083020000FD03000083020000B1
:1000C000830200008302000083020000830200001C
:1000D000830200008302000083020000830200000C
:1000E00083020000830200008302000083020000FC
:1000F00083020000830200008302000083020000EC
:1001000083020000830200008302000083020000DB
:1001100083020000830200008302000083020000CB
:1001200083020000830200008302000083020000BB
:1001300083020000830200008302000083020000AB
:1001400000000000000000000000000000000000AF
:10015000830200008302000083020000830200008B
:10016000000000000000000000000000000000008F
:10017000000000000000000000000000000000007F
:10018000000000000000000000000000000000006F
:10019000000000000000000000000000000000005F
:1001A000000000000000000000000000000000004F
:1001B000830200008302000083020000830200002B
:1001C000830200008302000083020000830200001B
:1001D000830200008302000083020000830200000B
:1001E00083020000830200008302000083020000FB
:1001F00083020000830200008302000083020000EB
:10020000830200008302000083020000000000005F
:1002100083020000830200008302000083020000CA
:1002200083020000830200008302000083020000BA
:1002300083020000830200008302000083020000AA
:10024000830200008302000083020000830200009A
:10025000830200008302000083020000830200008A
:1002600083020000830200008302000000F00AB84D
:10027000FEE7FEE7FEE7FEE7FEE7FEE7FEE7FEE756
:10028000FEE7FEE700F002F800F042F814A696E858
:10029000000CB244B344DA4501D100F039F8BAE8B1
:1002A0000F000FA696E83000A5EB040504EB060747
:1002B000AAEB0704A7F101074FEA15154FEA34141A
:1002C000A4F10104AC4201D300F022F813F0010FB5
:1002D00018BFFB1A43F0010300F001F8DBE71847F1
:1002E000D4060000E406000070470000002300244C
:1002F00000250026103A28BF78C1FBD8520728BF36
:1003000030C148BF0B6070471FB51FBD10B510BD91
:1003100000F029F81146FFF7F7FF00F0F5F900F0BB
:1003200047F803B4FFF7F2FF03BC00F04FF80000FA
:1003300072B6704762B67047EFF3108072B67047BE
:1003400080F31088704730BF704702480249014A65
:10035000024B7047700000207004002070000020E5
:10036000704770477047754600F02CF8AE460500A0
:100370006946534620F00700854618B020B5FFF7C0
:10038000E4FFBDE820404FF000064FF000074FF0BB
:1003900000084FF0000BAC46ACE8C009ACE8C0095F
:1003A000ACE8C009ACE8C00921F007018D467047F0
:1003B00010B50446AFF300802046BDE81040FFF7BB
:1003C000B0BF00000048704700000020014918201D
:1003D000ABBEFEE7260002007047000081B047F286
:1003E0005800C0F202000090FFE7009820B1FFE73C
:1003F000009801380090F8E701B0704740F26401BE
:10040000C2F2000100200860FFE740F26400C2F27F
:100410000000006840F64051C0F20301884209D84C
:10042000FFE7FFE740F26401C2F200010868013013
:100430000860EAE745F21440C4F202000068C00711
:10044000C8B1FFE745F21C41C4F202010120086077
:1004500040F26800C2F20000006801280AD1FFE7FC
:1004600040F26001C2F200010868013000F00300B0
:100470000860FFE7FFE745F21440C4F2020000689D
:10048000C00600282AD5FFE745F21C41C4F202014C
:100490001020086040F26800C2F20000006838B91D
:1004A000FFE740F26801C2F200010120086014E099
:1004B00040F26800C2F20000006801280CD1FFE79A
:1004C00040F26801C2F200010020086040F26001C1
:1004D000C2F200010860FFE7FFE7FFE77047000096
:1004E00081B04EF20810C4F20F00016841F0010122
:1004F00001600068009044F22C51C4F200010868C9
:1005000020F47040086044F22851C4F200010868E9
:1005100020F00800086044F20041C4F200010868BD
:1005200040F00800086044F22041C4F2000108686D
:1005300020F00800086044F21C51C4F20001086871
:1005400040F00800086001B07047000081B04EF232
:100550000810C4F20F00016841F02001016000683A
:10056000009045F22051C4F2020144F24B30C4F62F
:100570004F40086045F22451C4F20201086840F07F
:100580001100086045F20041C4F20201086820F041
:100590001100086045F22041C4F20201086820F011
:1005A0001100086045F21C51C4F20201086840F0D5
:1005B0001100086045F22C51C4F20201086820F0D5
:1005C0000F10086045F22851C4F20201086820F0BB
:1005D0001100086045F21051C4F20201086840F0B1
:1005E0001100086045F20441C4F20201086820F0DD
:1005F0001100086045F20841C4F20201086820F0C9
:100600001100086045F20C41C4F20201086820F0B4
:100610001100086045F21C41C4F20201112008607B
:1006200045F21041C4F20201086840F01100086070
:100630004EF21C41CEF200010868202262F31B50EA
:1006400008604EF20011CEF20001086840F08040D0
:10065000086001B0704700004EF21001CEF20001B8
:10066000086820F00100086044F22002C4F2000291
:10067000106880F0080010604EF21802CEF20002FE
:1006800000201060086840F001000860704700001A
:100690004EF21001CEF20001002008604EF620520A
:1006A000CEF200021068402363F31F6010600868F8
:1006B00040F006000860704781B000900098013853
:1006C0004EF21401CEF2000108604EF21801CEF293
:1006D00000010020086001B0704700004EF21001D8
:1006E000CEF20001086840F0010008607047000089
:1006F0004EF21001CEF20001086820F001000860FF
:10070000704700000120704780B582B00020019042
:100710008DF80300FFF70CFEFFF7E2FEFFF7B8FFCE
:10072000FFF714FFFFF706FEFFE7FFF7EBFF78B1D7
:10073000FFE740F26000C2F20000006840F6880265
:10074000C0F20002642100FB012000F005F802E085
:10075000FFF7F9FDFFE7E8E780B584B003900020DC
:100760008DF80B0040F26000C2F2000000680190BA
:10077000FFE703989DF80B1000EB41004178002043
:100780000090A9B1FFE740F26800C2F200000168E2
:100790000020009061B1FFE7019840F26001C2F2D1
:1007A00000010968401AB0FA80F040090090FFE7A4
:1007B0000098C007D8B3FFE703989DF80B1010F816
:1007C0001100FF2803D1FFE7FFF792FF0FE0039826
:1007D0009DF80B1010F8111040F63400C0F2000024
:1007E00050F82100FFF768FFFFF778FFFFE70020D0
:1007F0008DF80A00FFE79DF80A0003999DF80B2089
:1008000001EB42014978884209DAFFE7FFF7E6FD8C
:10081000FFE79DF80A0001308DF80A00EBE7FFF7CB
:1008200067FF9DF80B0001308DF80B00A1E704B0C5
:1008300080BD0000467700004B6A0000B25E0000F9
:100840008B590000B84F000006470000423F0000EF
:10085000B93B000035350000672F0000BE2C0000BA
:10086000DC27000083230000A31F0000DD1D000023
:100870009A1A0000B31700005F160000EE13000084
:10088000C1110000D20F000010040F040E040F0469
:100890001004100410080F040F040F0810041204B1
:1008A000120810040F040E040F04100410041008A2
:1008B0000F040F0410040F040E08000000000000D5
:1008C0000000000000000000000000000000000028
:1008D0000000000000000000000000000000000018
:1008E0000000000000000000000000000E040E04E4
:1008F0001204120413041304120811041104100446
:1009000010040F040F040E08120412041104110441
:10091000100410040F08120412041104110410042E
:1009200010040F080E040E0412041204130413041E
:10093000120811041104100410040F040F040E080F
:1009400000000000000000000000000000000000A7
:100950000B020B020C040B040E040D04FF040B022B
:100960000B020C040B040F040E04FF040B020B0219
:10097000120410040E040D040C08FF0411021102ED
:1009800010040E040F040E08000000000000000018
:100990000000000000000000000000000000000057
:1009A0000000000000000000000000000000000047
:1009B00000000000C40900000000002070040000D6
:0409C000EC02000045
:040000050000026D88
:00000001FF
